:04000000020029329F
:01000B0032C2
:0100130032BA
:01001B0032B2
:0300230002009A3E
:18008200752300752440752500752680E4F553F554F55FF560020026FA
:030026000222565D
:20009A0030980885995FC29875600132759850758920758DFDD28ED2ACD2AF22854E992010
:2000BA0099FDC29922AE82AF837C007D00C3EC9EED64808FF063F08095F050147AE87B037F
:2000DA001ABAFF011BEA4B70F70CBC00E00D80DD22AF82C2B5D2B4852382852483EFF0C222
:2000FA00B4D2B5D2B4852382852483E508F0C2B422AE82AF838F04C2B5D2B4852382852495
:20011A0083ECF0C2B4C2B5D2B4852382852483EEF0C2B4AE09AC08D2B5D2B5D2B485238220
:20013A00852483EEF0C2B4D2B5D2B4852382852483ECF0C2B42275080790000F1201967E04
:20015A00007F007561008E828F83C007C00612019FD006D0070EBE00010FC3EE940DEF9471
:20017A000040E075080490000F020196D2B490000DE0F541C2B4E54120E1F122AF08D2B466
:20019A00EFF0C2B422AE82AF83D2B490000D7401F0C2B4C007C006120186D006D007D2B415
:2001BA008E828F83E4F0C2B4AF61D2B490000DEFF0C2B422AE82AF83D2B490000D7401F025
:2001DA00C2B4C007C006120186D006D007D2B48E828F83E0F541C2B4E541540F4430F54155
:2001FA00D2B490000DE4F0C2B485418222852959852B5A852D5BE4F508F50990D6BA1203DC
:20021A007075820212037D750830750901900084120363D2B490000D7401F0C2B41201867A
:20023A00D2B4900005E0F541C2B4E541540F4430F541D2B490000DE4F0C2B48541821209FA
:20025A00F9D2B490000D7401F0C2B4120186D2B4900004E0F541C2B4E541540F4430F5411B
:20027A00D2B490000DE4F0C2B48541821209F99028AC75F080120A5FD2B490000D7401F04F
:20029A00C2B4120186D2B4900003E0F541C2B4E541540F4430F541D2B490000DE4F0C2B4F0
:2002BA008541821209F9D2B490000D7401F0C2B4120186D2B4900002E0F541C2B4E5415413
:2002DA000F4430F541D2B490000DE4F0C2B48541821209F99028AC75F080120A5FD2B490A8
:2002FA00000D7401F0C2B4120186D2B4900001E0F541C2B4E541540F4430F541D2B4900077
:20031A000DE4F0C2B48541821209F9D2B490000D7401F0C2B4120186D2B4900000E0F5414D
:20033A00C2B4E541540F4430F541D2B490000DE4F0C2B48541821209F9855929752A008506
:20035A005A2B752C00855B2D2285822985832A85082B85092C2285822F8583308508318587
:20037A00093222E582FF24F7500122EF60068F067F0080047E017F008E2D22E582FF24FCC4
:20039A00404EEF2F9003A27380068014802280307F487533F0753400753540753601803E27
:2003BA007F287533407534017535F0753600802E7F887533F0753400753540753601801E7B
:2003DA007FE87533407534017535F0753600800E7F487533F07534007535407536018F0802
:2003FA007582360200EBAE82AF83C2B5D2B4852382852483742AF0C2B4D2B5D2B4852382D9
:20041A008524838F05EDF0C2B4D2B5D2B4852382852483EEF0C2B4D2B5D2B4852382852418
:20043A0083E50BF0C2B4D2B5D2B4852382852483E50AF0C2B4C2B5D2B4852382852483744A
:20045A002BF0C2B4D2B5D2B4852382852483E509F0C2B4D2B5D2B4852382852483E508F0FA
:20047A00C2B4D2B5D2B4852382852483E50DF0C2B4D2B5D2B4852382852483E50CF0C2B477
:20049A00227533F0753400753540753601C2B4D2B5C2B5D2B4852382852483E4F0C2B4D2DD
:2004BA00B5D2B4852382852483E4F0C2B4D2B5D2B4852382852483E4F0C2B4D2B5D2B48508
:2004DA002382852483E4F0C2B49000C81200BF7508007582011200EB9000321200BF75083C
:2004FA00007582281200EB90000A1200BF7508237582C01200EB7508117582C11200EBC202
:20051A00B5D2B485238285248374C5F0C2B4D2B5D2B4852382852483743DF0C2B4D2B5D2BE
:20053A00B48523828524837430F0C2B47508AA7582C71200EB7508887582361200EBC2B505
:20055A00D2B4852382852483743AF0C2B4D2B5D2B48523828524837455F0C2B4D2B5D2B4F2
:20057A00852382852483E4F0C2B475081B7509009000B112010B7508077582B71200EB75A8
:20059A0008007582111200EB9000961200BF7508007582291200EB9001F41200BFE5332411
:2005BA00FFF50AE53434FFF50BE53524FFF50CE53634FFF50DE4F508F509900000020400D4
:2005DA00AE82AF8374012EF50AE43FF50B74012562F50CE43563F50D8562088563098E826F
:2005FA008F83120400C2B5D2B4852382852483742CF0C2B4D2B5D2B4852382852483E565B3
:20061A00F0C2B4D2B4852382852483E564F0C2B422AE82AF83C3EE94F0EF9400500BC3E590
:20063A00669440E5679401400122E5682EFCE5693FFD1CBCFF011DC3EC94F0ED9400400A2E
:20065A0074F0C39EF568E49FF569E56A2566FCE56B3567FD1CBCFF011DC3EC9440ED9401C4
:20067A00400D7440C39566F56A74019567F56BE5682EFCE5693FFDEC24FFF50AED34FFF54D
:20069A000BE56A2566FCE56B3567FDEC24FFF50CED34FFF50D8566088567098E828F831228
:2006BA000400C2B5D2B4852382852483742CF0C2B4D2B5AF6DAD6AAE6BED4E6030AB68AC66
:2006DA0069EB4C6021D2B4852382852483EFF0C2B4D2B4852382852483E56CFAF0C2B41B06
:2006FA00BBFF011C80DB1DBDFF011E80CC22AE82AF838F05E4F508F509750AEFF50B750C84
:20071A003F750D01900000C006C005120400D005D006C2B5D2B4852382852483742CF0C27C
:20073A00B4D2B5D2B4852382852483EDF0C2B4D2B4852382852483EEF0C2B47CB07F048CCA
:20075A00028F031CBCFF011FEA4B60667B10D2B4852382852483EDF0C2B4D2B4852382850A
:20077A002483EEF0C2B4D2B4852382852483EDF0C2B4D2B4852382852483EEF0C2B4D2B47F
:20079A00852382852483EDF0C2B4D2B4852382852483EEF0C2B4D2B4852382852483EDF0AD
:2007BA00C2B4D2B4852382852483EEF0C2B4DB9E808D7F3F8F041FEC601AD2B485238285E8
:2007DA002483EDF0C2B4D2B4852382852483EEF0C2B480E022858276858377C3E57694F0B5
:2007FA00E577648094805059C3E56E9440E56F64809481504CAC757D008C088D09900006B1
:20081A00C005C004122317AA82AB83D004D005EA2576FAEB3577FB1ABAFF011BEB20E721D3
:20083A00EDC40354F8CCC403CC6CCC54F8CC6CFDEC256EFCED356FFD1CBCFF011DED30E784
:20085A0001227401B5750474018001E4FDFCE571B57308E572B57403D38001C392007B00B8
:20087A00BB0600400122BB05057578008030857008750900900005C005C004C00312231730
:20089A00A882A983D003D004D005E824A1F8E93423F9EB28F582E439F583E493F5788BF010
:2008BA00E575A42576F8E57735F0F98879897A7A00BA080040030209F5E57820E003020925
:2008DA0063ED60408B067F00EE2576F582EF3577F5838A067F00EE256EF562EF356FF56319
:2008FA00857164857265C005C004C003C002C001C0001205DAD000D001D002D003D004D0BE
:20091A00050209EB8AF0E575A4256EF566E56F35F0F567AE757F008E688F698E6A8F6B8580
:20093A00716C85726D857982857A83C005C004C003C002C001C00012062BD000D001D00215
:20095A00D003D004D0050209EB3000030209EBEC603F8B067F00EE2576F582EF3577F58334
:20097A008A067F00EE256EF562EF356FF563857364857465C005C004C003C002C001C00042
:20099A001205DAD000D001D002D003D004D00580408AF0E575A4256EF566E56F35F0F56762
:2009BA00AE757F008E688F698E6A8F6B85736C85746D88828983C005C004C003C002C001EC
:2009DA00C00012062BD000D001D002D003D004D005E578C313F5780A0208CB0B02087AAF4E
:2009FA0082BF0A22AD2DE4C40354F8CDC403CD6DCD54F8CD6DFEED252BF52BEE352CF52CB3
:200A1A00E4F529F52A22BF0D0122852B6E852C6F8F70852F71853072853173853274852DFB
:200A3A0075852982852A831207EF852D08750900900006122317AE82AF83EE2529F529EFF8
:200A5A00352AF52A22AD82AE83AFF07B007C00EB2DF8EC3EF98F02888289838AF0122381DC
:200A7A00FA60208A82C007C006C005C004C0031209F9D003D004D005D006D0070BBB00CF2B
:200A9A000C80CC227590F07560007590F08590215321F074F0B521028004E56060EC120204
:200ABA0007E59054F0F52174F0B52104E56060EE9000011200BFE59054F0F52174F0B5210A
:200ADA0004E56060D9E5606003020BA77590FEE59054F0F52174F0B5210280057522008074
:200AFA003D7590FDE59054F0F52174F0B52102800575220180287590FBE59054F0F521748A
:200B1A00F0B52102800575220280137590F7E59054F0F52174F0B5210280B175220374E01C
:200B3A00B52115E52275F004A4249CF582742835F0F583E493F5822274D0B52118E522756E
:200B5A00F004A4249CFE742835F0FF8E828F83A3E493F5822274B0B52119E52275F004A469
:200B7A00249CFE742835F0FF8E828F83A3A3E493F58222E52275F004A4249CFE742835F0D2
:200B9A00FF8E828F83A3A3A3E493F58222756000E55F24C0F58222AF82BF30005003020C0A
:200BBA0042EF24B95003020C42EF24D0FF240A83F582EF241B83F583E47302060A0E121698
:200BDA001A1E2226424242424242422A2E32363A3E0C0C0C0C0C0C0C0C0C0C0C0C0C0C0CC1
:200BFA000C0C0C0C0C0C0C0C7F00803E7F01803A7F0280367F0380327F04802E7F05802A3A
:200C1A007F0680267F0780227F08801E7F09801A7F0A80167F0B80127F0C800E7F0D800AB6
:200C3A007F0E80067F0F80027F008F8222AE82AF83C3740F9EE49F5003020CC4EE240A8338
:200C5A00F582EE241483F583E47384888C9094989CA0A4A8ACB0B4B8BCC00C0C0C0C0C0C23
:200C7A000C0C0C0C0C0C0C0C0C0C7F30803E7F31803A7F3280367F3380327F34802E7F352B
:200C9A00802A7F3680267F3780227F38801E7F39801A7F4180167F4280127F43800E7F447A
:200CBA00800A7F4580067F4680027F308F8222E582FFC4540FFE8E4E754F00534E0F754F7E
:200CDA0000854E82854F83C007120C478582521209F9D0077E00740F5FF54E8E4F854E8209
:200CFA00854F83120C478582520209F9AE82E583FFC4540FF54E754F00534E0F754F008503
:200D1A004E82854F83C007C006120C478582529028AE75F080120A5F8552821209F9D0063E
:200D3A00D0078F4E754F00534E0F754F00854E82854F83C007C006120C478582521209F9A2
:200D5A00D006D0078E4EEFC4C54EC4540F654EC54E540FC54E654EC54EF54F534E0F754F49
:200D7A0000854E82854F83C007C006120C478582521209F9D006D0078E4E8F4F534E0F75C2
:200D9A004F00854E82854F83120C478582520209F9AE82AF83C2B48E828F83E508F0D2B41F
:200DBA0022AF827D007E00C2B48D828E83EFF0D2B40DBD00010EC374FE9D74FF9E50E822BA
:200DDA00AE82AF83C2B48E828F83E0F541D2B485418222758204120395E4F508F50990D60F
:200DFA00BA12037075820312037D900000120708E4F508F509900000020363120DEDE4F5A1
:200E1A0008F50990F8001203709028B175F080120A5F9028BF75F080120A5F9000C812009B
:200E3A00BF020DEDE4F538F539F508F50990FFFF120370120A9E858237E4F508F50990FF2A
:200E5A00FF1203708537821209F9853782120BB1AF82EFC454F0FEE44238EE4239120A9EEF
:200E7A00858237E4F508F50990FFFF1203708537821209F9853782120BB1AF828F06E442DE
:200E9A0038EE4239120A9E858237E4F508F50990FFFF1203708537821209F9853782120B00
:200EBA00B1AF82E4C454F0CFC4CF6FCF54F0CF6FFEEF4238EE4239120A9E858237E4F5087F
:200EDA00F50990FFFF1203708537821209F9853782120BB1AF827E00EF4238EE423922E402
:200EFA00F508F50990FFFF120370753A00120A9E858237E4F508F50990FFFF120370853775
:200F1A00821209F9853782120BB1E582C454F0423A120A9E858237E4F508F50990FFFF12B3
:200F3A0003708537821209F9853782120BB1E582423A22753E00753B00120DEDE4F508F57C
:200F5A000990FFFF1203709028C975F080120A5F9028DE75F080120A5F9028E875F08012ED
:200F7A000A5F9028F275F080120A5F852D08750900900006122317AE82AF83E529C39EF504
:200F9A0029E52A9FF52A85295C852B5D852D5EE4F508F50990FFFF120370120A9E85823730
:200FBA00855C29752A00855D2B752C00855E2D8537821209F97431B53702800E7432B537AB
:200FDA0002800F7433B5371A8010753B01753E018016753B02753E01800E753B04753E01D2
:200FFA008006120E15753E00E53E7003020F5322E4F53EF53CF53D120DED90290B75F0801E
:20101A00120A5FE52D75F018A4FEAFF0E529C39EF529E52A9FF52A85295C852B5D852D5EEA
:20103A00E4F538F539F508F50990FFFF120370120A9E858237855C29752A00855D2B752CFA
:20105A0000855E2D8537821209F985295C852B5D852D5E853782120BB1AF82EFC454F0FEBB
:20107A00E44238EE4239120A9E858237855C29752A00855D2B752C00855E2D8537821209D7
:20109A00F985295C852B5D852D5E853782120BB1AF828F06E44238EE4239120A9E85823785
:2010BA00855C29752A00855D2B752C00855E2D8537821209F985295C852B5D852D5E85377A
:2010DA0082120BB1AF82E4C454F0CFC4CF6FCF54F0CF6FFEEF4238EE4239120A9E8582379F
:2010FA00855C29752A00855D2B752C00855E2D8537821209F985295C852B5D852D5E85373A
:20111A0082120BB1AF827E00EF4238EE423985383C85393DE53C453D7009120E15753E00EC
:20113A00021011753E0122754100753F00120DED90292775F080120A5F758255120DBB754B
:20115A00085590FFFF120DABE4F508F5099007E012037090295675F080120A5F9000C8120C
:20117A0000BF120DED90296775F080120A5F7E007F008E828F83C007C006120DDA8582411D
:20119A00D006D0070EBE00010F7455B5410474018001E4FD6009C374FE9E74FF9F50D3EDB4
:2011BA00601190FFFFC007C006120DDA858241D006D0077455B541028061E4F508F509908A
:2011DA00F800C007C00612037090299275F080120A5F9000641200BF9029B075F080120A11
:2011FA005FD006D007EE24FFF582EF34FFF583120D069029BB75F080120A5F854182120C48
:20121A00C9E4F508F50990FFFF1203709029C075F080120A5F9000C80200BFE4F508F50928
:20123A009007E01203709029D875F080120A5F9000C81200BF120DED9029F475F080120AC4
:20125A005F7582AA120DBB7508AA90FFFF120DABE4F508F5099007E012037090295675F0CC
:20127A0080120A5F9000C81200BF120DED902A2375F080120A5F7E007F008E828F83C00701
:20129A00C006120DDA858241D006D0070EBE00010F74AAB5410474018001E4FD6009C37415
:2012BA00FE9E74FF9F50D3ED601190FFFFC007C006120DDA858241D006D00774AAB54102C6
:2012DA008061E4F508F50990F800C007C006120370902A4E75F080120A5F9000641200BF6D
:2012FA009029B075F080120A5FD006D007EE24FFF582EF34FFF583120D069029BB75F080BE
:20131A00120A5F854182120CC9E4F508F50990FFFF1203709029C075F080120A5F9000644A
:20133A000200BFE4F508F5099007E0120370902A6C75F080120A5F902A8875F080120A5FCF
:20135A009000641200BFE4F508F50990FFFF1203709029C075F080120A5F9000640200BF2E
:20137A00E4F555F556F557F558F542F543F544F545F546F547F548F549F54AF54BF54CF5B8
:20139A004D120DED902A9E75F080120A5FE52D75F018A4FEAFF0E529C39EF529E52A9FF522
:2013BA002A120E3E853842853943120DED902ACD75F080120A5FE52D75F018A4FEAFF0E5E3
:2013DA0029C39EF529E52A9FF52A120E3E853846853947120F4D120DED12100AC3E54295F3
:2013FA0046E54395475063853B08750900853C82853D83122317AE82AF83EE2546FCEF35E1
:20141A0047FD8C558D56755700755800C374FF955574FF9556E49557E4955850087548FFDE
:20143A007549FF800AEE2546F548EF3547F549E548C39546F53CE5499547F53DE53C25424C
:20145A00F544E53D3543F5458061853B08750900853C82853D83122317AE82AF83EE2542B3
:20147A00FCEF3543FD8C558D56755700755800C374FF955574FF9556E49557E4955850081E
:20149A007544FF7545FF800AEE2542F544EF3543F545E544C39542F53CE5459543F53DE5FB
:2014BA003C2546F548E53D3547F549C3E5429546E5439547504EC3E5469544E547954550CE
:2014DA004385444A85454B85484C85494DC3E54C9546E54D9547406D854A82854B83120D06
:2014FA00DA858241854108854C82854D83120DAB154A74FFB54A02154B154C74FFB54C0266
:20151A00154D80C985424A85434B85464C85474DC3E548954CE549954D402A854A82854B46
:20153A0083120DDA858241854108854C82854D83120DAB054AE4B54A02054B054CE4B54CD3
:20155A00CF054D80CB120DEDE4F508F5099007E0120370902B0175F080120A5F90006412FC
:20157A0000BFE4F508F50990FFFF1203709029C075F080120A5F9000640200BFE4F555F5EF
:20159A0056F557F558F542F543F544F545F53CF53DF550F551F553F554F548F549F53F1220
:2015BA000DED902B1375F080120A5FE52D75F018A4FEAFF0E529C39EF529E52A9FF52A12AD
:2015DA000E3E853842853943120DED12100A120DED902B3A75F080120A5FE52D75F00CA4E5
:2015FA00FEAFF0E529C39EF529E52A9FF52A120EF9853A50755100E53C2542FEE53D3543CC
:20161A00FF8E558F56755700755800AC42AD437E007F00C3E5559CE5569DE5579EE5589F4E
:20163A0050147544FF74FFF545C39542F53C74FF9543F53D800CE53C2542F544E53D354398
:20165A00F545AE42AF438E048F05C3E5449CE5459D404CE53F70488E828F83C007C00612B6
:20167A000DDA858241D006D007AC417D00ECB5501AEDB5511674FFB55309B55406754801A5
:20169A007549000553E4B5530205548E048F05BCFF06BDFF03753F010EBE00AA0F80A7E5E7
:2016BA00534554700D7401B5480614B549028002805F120DEDE4F508F5099007E0120370D3
:2016DA00902B5775F080120A5F855082120CC9902B5B75F080120A5FE5534554600B8553B6
:2016FA0082855483120D0680167401B5480614B5490280028009902B6375F080120A5F9092
:20171A002B6B75F080120A5F90012C1200BF021D66120DED902B5775F080120A5F855082D1
:20173A00120CC9902B7375F080120A5F854282854383120D06902B8F75F080120A5F8544EE
:20175A0082854583120D0690012C1200BF120DED9029C075F080120A5F9000C80200BFE40B
:20177A00F54CF54DF53FF546F54785424A85434B120DED75820212037D902B9375F0801221
:20179A000A5FC3E53C940AE53D9400500302184875460A7547007E007F00854A82854B83B7
:2017BA00C007C006120D069029BB75F080120A5FD006D0077C007D00AA3B7B00C3EC9AED4D
:2017DA0064808BF063F08095F0502B854A82854B83C007C006C005C004120DDA120CC9D053
:2017FA0004D005D006D007054AE4B54A02054B0CBC00C50D80C2902B9375F080C007C00629
:20181A00120A5FD006D007153C74FFB53C02153D0EBE00010FC3EE940AEF64809480500318
:20183A000217B4054CE4B54C02054D0219ADE53C453D7003021937C3E53C940AE53D9400CF
:20185A004003021937853C46853D47E53C453D6060854A82854B83120D069029BB75F08044
:20187A00120A5F7E007F00AC3B7D00C3EE9CEF64808DF063F08095F05023854A82854B8366
:20189A00C007C006120DDA120CC9D006D007054AE4B54A02054B0EBE00CD0F80CA902B9350
:2018BA0075F080120A5F153C74FFB53C02153D809AE5484549605C854A82854B83120D064B
:2018DA009029BB75F080120A5F7E007F008E048F05C3EC9548ED95495023854A82854B8389
:2018FA00C007C006120DDA120CC9D006D007054AE4B54A02054B0EBE00D30F80D0E54AC340
:20191A009548F54AE54B9549F54B902B9375F080120A5F054CE4B54C7A054D8076E53C4537
:20193A003D7070E5484549606A853C46853D47854A82854B83120D069029BB75F080120A9D
:20195A005F7E007F008E048F05C3EC9548ED95495023854A82854B83C007C006120DDA12E5
:20197A000CC9D006D007054AE4B54A02054B0EBE00D30F80D0902B9375F080120A5F054C4A
:20199A00E4B54C02054DE54AC39548F54AE54B9549F54B7508FA750900900000120363900B
:2019BA002B9575F080120A5F854C82854D83120D06120A9E8582377430B53702801274315F
:2019DA00B5370280657445B53703021AE1021AF8753E01E53C453D6006753F00021B3C7522
:2019FA003F00853B08750900854682854783122317AE82AF83E54AC39EF54AE54B9FF54B20
:201A1A00E546253CF53CE547353DF53D154C74FFB54C02154D120DED902BC675F080120A58
:201A3A005F9000C81200BF021B3CC37401954CE4954D5049753F00740A2546FEE43547FF39
:201A5A00853B087509008E828F83C007C006122317AC82AD83D006D007E54AC39CF54AE56E
:201A7A004B9DF54BE54C24FEF54CE54D34FFF54DEE253CF53CEF353DF53D021B3C753F00C9
:201A9A00120DED902BD475F080120A5F9000C81200BF853B087509008546828547831223F1
:201ABA0017AE82AF83E54AC39EF54AE54B9FF54B154C74FFB54C02154DE546253CF53CE5DA
:201ADA0047353DF53D805B120DED902BE075F080120A5F9000C81200BF753F018044753FC9
:201AFA0000120E15E54645476038853B08750900854682854783122317AE82AF83E54AC3C6
:201B1A009EF54AE54B9FF54B154C74FFB54C02154DE546253CF53CE547353DF53DE4F546DA
:201B3A00F547E53F700302178A22E4F555F556F557F558F542F543F544F545F53BF53CF5A9
:201B5A003DF548F549120DED902BF975F080120A5FE52D75F018A4FEAFF0E529C39EF52936
:201B7A00E52A9FF52A120E3E853842853943120F4D120DED12100AAE3B7F00853C08853D87
:201B9A00098E828F83C007C006122317AC82AD83D006D007EC2542FAED3543FB8A558B56AF
:201BBA00755700755800A842A9437A007B00C3E55598E55699E5579AE5589B50087544FF80
:201BDA007545FF8012EC2542FCED3543FDEC24FFF544ED34FFF545E544C39542FCE54595CF
:201BFA0043FD0CBC00010D8E088F098C828D83C007C006C005C0041222EE85823C85833DA9
:201C1A00D004D005D006D0078E088F098C828D83122334858248858349021779AE82AF830B
:201C3A00C007C006120DDA858241120DED902B9375F080120A5FD006D0078E828F83C0076C
:201C5A00C006120D069029BB75F080120A5F854182120CC9902C2775F080120A5FE52D75B2
:201C7A00F00CA4FCADF0E529C39CF529E52A9DF52A120EF9D006D007853A088E828F8312FA
:201C9A000DAB902C3B75F080120A5F902C5C75F080020A5F753F00754000753E00120DED8B
:201CBA00902B1375F080120A5FE52D75F018A4FEAFF0E529C39EF529E52A9FF52A120E3E54
:201CDA00E5407052E53F704E853882853983121C36120A9E8582377431B537028007744572
:201CFA00B53727801D753E0174FFB53808B53905754001801B0538E4B538020539754000B7
:201D1A00800E753E01753F018006753E00120E15E53E60B480AA120DED7401B54014E4F580
:201D3A0008F50990F800120370902C6475F080120A5FE4F508F50990FFFF120370902C73D5
:201D5A0075F080120A5F9000C80200BFE4F546F547F54CF54D120DED85424A85434B854A13
:201D7A0082854B83120DDA858241AE417F00EEB55006EFB551028021C3E54A9544E54B95A4
:201D9A00455016054AE4B54A02054B854A82854B83120DDA85824180D1AE417F00EEB55063
:201DBA0006EFB551028058E544B54A53E545B54B4E120DED902B5775F080120A5F8550826C
:201DDA00120CC9902C8C75F080120A5F854282854383120D06902B8F75F080120A5F85442E
:201DFA0082854583120D069000C81200BF120DED9029C075F080120A5F9000640200BF1200
:201E1A000DEDE4F508F5099007E0120370902B5775F080120A5F855082120CC9902CAA7548
:201E3A00F080120A5F9000C81200BF854A46854B47120DED85464A85474B854A82854B836C
:201E5A00120D06755307755400054CE4B54C02054D74FFB54A05B54B02804C054AE4B54AAA
:201E7A0002054B854A82854B83120DDA858241AE417F00EEB5501FEFB5511B155374FFB5F1
:201E9A0053021554902B9375F080120A5F854A82854B83120D06C3E54A9544E54B954550CE
:201EBA0006E553455470B47508FA75090090000012036375820212037DE4F508F50990FF17
:201EDA00FF120370902B9575F080120A5F854C82854D83120D06120A9E8582377430B5375F
:201EFA000280137431B53703021FB17445B53703022031022045C3E54A9544E54B95454056
:201F1A001E120DED902CCF75F080120A5F9000C81200BF154C74FFB54C02154D02205105B8
:201F3A004AE4B54A02054B854A82854B83120DDA858241AE417F00EEB5500AEFB551068538
:201F5A004A46854B47C3E54A9544E54B9545500CAE417F00EEB550C7EFB551C3C3E54A9528
:201F7A0044E54B95455003022051AE417F00EEB55007EFB55103022051120DED902CCF7554
:201F9A00F080120A5F9000C81200BF154C74FFB54C02154D0220517401B54C0614B54D02D3
:201FBA008002801E120DED902CCF75F080120A5F9000C81200BF154C74FFB54C02154D028C
:201FDA00205185464A85474BE4F553F554C3E5539408E5549400502B154A74FFB54A02150E
:201FFA004B854A82854B83120DDA858241AE417F00EEB550D8EFB551D40553E4B553CE057E
:20201A005480CA854A46854B47E54C24FEF54CE54D34FFF54D8020120DED9029C075F08097
:20203A00120A5F9000C81200BF800C120E15154C74FFB54C02154D7445B5370122021E4BB5
:20205A0022E4F555F556F557F558F542F543F544F545F53BF53CF53DF550F551120DED9096
:20207A002CDC75F080120A5FE52D75F018A4FEAFF0E529C39EF529E52A9FF52A120E3E85D1
:20209A003842853943120DED12100A120DED902D0475F080120A5FE52D75F00CA4FEAFF082
:2020BA00E529C39EF529E52A9FF52A120EF9853A50755100E53C2542FEE53D3543FF8E55BC
:2020DA008F56755700755800AC42AD437E007F00C3E5559CE5569DE5579EE5589F5014758D
:2020FA0044FF74FFF545C39542F53C74FF9543F53D800CE53C2542F544E53D3543F545026B
:20211A001D66753700852582852683D2B474C0F0C2B4120DEDE4F508F5099007E012037015
:20213A00902D2275F080120A5F902D3A75F080120A5FE4F508F50990FFFF120370902D48F8
:20215A0075F080120A5F902D5775F080120A5F902D6175F080120A5F902D6C75F080120AE9
:20217A005F902D7675F080120A5F902D8075F080120A5FE4F508F50990FFFF1203707582CD
:20219A000112037D750830750901900003120363902D8A75F080120A5F120207120A9E855A
:2021BA0082377441B5370280237442B53702802C7443B5370280357444B53702803E74453F
:2021DA00B5370280477446B537628050852582852683D2B47488F0C2B40211418525828511
:2021FA002683D2B47483F0C2B402137A852582852683D2B474C6F0C2B402159685258285CC
:20221A002683D2B474A1F0C2B4021B44852582852683D2B47486F0C2B4021CAE85258285DC
:20223A002683D2B4748EF0C2B402205B852582852683D2B474FFF0C2B4020E15C2B5C2B4A5
:20225A001200A6120150852582852683D2B474FEF0C2B49000641200BF852582852683D2A0
:20227A00B474FCF0C2B49000641200BF852582852683D2B474F8F0C2B49000641200BF85F9
:20229A002582852683D2B474F0F0C2B49000641200BF852582852683D2B474E0F0C2B49010
:2022BA0000641200BF852582852683D2B474C0F0C2B49000641200BFC2B4D2B512049B855D
:1422DA002582852683D2B474F9F0C2B4120DED12211C80FBEC
:2023A10000000000003E5B4F5B3E3E6B4F6B3E1C3E7C3E1C183C7E3C181C577D571C1C5EC7
:2023C1007F5E1C00183C1800FFE7C3E7FF0018241800FFE7DBE7FF30483A060E2629792956
:2023E10026407F050507407F05253F5A3CE73C5A7F3E1C1C08081C1C3E7F14227F22145F67
:202401005F005F5F06097F017F006689956A606060606094A2FFA29408047E040810207E13
:20242100201008082A1C08081C2A08081E101010100C1E0C1E0C30383E3830060E3E0E067D
:20244100000000000000005F00000007000700147F147F14242A7F2A122313086462364948
:202461005620500008070300001C2241000041221C002A1C7F1C2A08083E080800807030FC
:20248100000808080808000060600020100804023E5149453E00427F400072494949462105
:2024A10041494D331814127F1027454545393C4A494931412111090736494949364649492A
:2024C100291E0000140000004034000000081422411414141414004122140802015909065F
:2024E1003E415D594E7C1211127C7F494949363E414141227F4141413E7F494949417F09D5
:202501000909013E414151737F0808087F00417F41002040413F017F081422417F404040EE
:20252100407F021C027F7F0408107F3E4141413E7F090909063E4151215E7F0919294626BE
:202541004949493203017F01033F4040403F1F2040201F3F4038403F63140814630304783F
:2025610004036159494D43007F4141410204081020004141417F04020102044040404040B1
:20258100000307080020545478407F284444383844444428384444287F385454541800085A
:2025A1007E090218A4A49C787F0804047800447D40002040403D007F1028440000417F403D
:2025C100007C047804787C080404783844444438FC1824241818242418FC7C080404084882
:2025E1005454542404043F44243C4040207C1C2040201C3C4030403C44281028444C90907F
:20260100907C4464544C4400083641000000770000004136080002010204023C2623263CBA
:202621001EA1A161123A4040207A38545455592155557941225454784221555478402054E5
:202641005579400C1E5272123955555559395454545939555454580000457C410002457DF8
:20266100420001457C407D1211127DF0282528F07C545545002054547C547C0A097F493206
:20268100494949323A4444443A324A4848303A4141217A3A42402078009DA0A07D3D4242EA
:2026A100423D3D4040403D3C24FF2424487E4943662B2FFC2F2BFF0929F620C0887E090338
:2026C10020545479410000447D413048484A32384040227A007A0A0A727D0D19317D262945
:2026E100292F28262929292630484D4020380808080808080808382F10C8ACBA2F102834B5
:20270100FA00007B000008142A142222142A1408AA005500AAAA55AA55AA000000FF0010EB
:202721001010FF00141414FF001010FF00FF1010F010F0141414FC001414F700FF0000FFBB
:2027410000FF1414F404FC141417101F10101F101F1414141F00101010F0000000001F10D7
:202761001010101F10101010F010000000FF101010101010101010FF10000000FF14000018
:20278100FF00FF00001F10170000FC04F414141710171414F404F40000FF00F71414141440
:2027A100141414F700F7141414171410101F101F141414F4141010F010F000001F101F0077
:2027C10000001F14000000FC140000F010F01010FF10FF141414FF141010101F00000000F9
:2027E100F010FFFFFFFFFFF0F0F0F0F0FFFFFF0000000000FFFF0F0F0F0F0F3844443844AB
:20280100FC4A4A4A347E02020606027E027E0263554941633844443C04407E201E20060250
:202821007E020299A5E7A5991C2A492A1C4C7201724C304A4D4D303048784830BC625A46F6
:202841003D3E494949007E0101017E2A2A2A2A2A44445F444440514A444040444A51400023
:2028610000FF0103E080FF000008086B6B083612362436060F090F060000181800000010BC
:2028810010003040FF0101001F01011E00191D1712003C3C3C3C0000000000313437453215
:2028A10035383033363946414243443A003078000A202020496E76616C69640A0A00202021
:2028C1002020496E707574000A53656C65637420446174610A547970653A0A0A0028312927
:2028E10020427974650A0028322920576F72640A0028332920446F75626C650A2020202047
:20290100576F72640A0A20205F000A456E74657220446174610A53697A653A0A0A20203062
:20292100785F5F5F5F000A57726974696E6720307835350A746F20616C6C0A65787465720A
:202941006E616C2052414D0A6C6F636174696F6E732E0A0A0057726974650A636F6D706CF3
:202961006574652E0A000A566572696679696E6720616C6C0A52414D206C6F636174696FD5
:202981006E730A657175616C20307835352E0A0A003173742052414D20636865636B0A750A
:2029A1006E7375636365737366756C2E0A0A004572726F722061743A0A003A20307800528F
:2029C100657475726E696E6720746F0A6D61696E206D656E752E003173742052414D20633A
:2029E1006865636B0A7375636365737366756C2E0A0A000A57726974696E67203078414177
:202A01000A746F20616C6C0A65787465726E616C2052414D0A6C6F636174696F6E732E0AF4
:202A21000A000A566572696679696E6720616C6C0A52414D206C6F636174696F6E730A6530
:202A41007175616C20307841412E0A0A00326E642052414D20636865636B0A756E737563DC
:202A61006365737366756C2E0A0A00326E642052414D20636865636B0A73756363657373F9
:202A810066756C2E0A0A0052414D20636865636B0A636F6D706C6574652E0A0A000A456E4C
:202AA10074657220736F757263650A7374617274696E672052414D0A616464726573733A79
:202AC1000A0A0A202030785F5F5F5F000A456E7465720A64657374696E6174696F6E0A7342
:202AE10074617274696E672052414D0A616464726573733A0A0A0A202030785F5F5F5F0030
:202B01000A4D6F766520636F6D706C6574652E0A0A000A456E7465720A7374617274696E41
:202B2100672052414D0A616464726573733A0A0A202030785F5F5F5F000A456E7465722063
:202B41007365617263680A76616C75653A0A0A202030785F5F000A30780020666F756E64F5
:202B61000A0030783130303030000A74696D65732E00206E6F740A666F756E6420696E0ABF
:202B810065787465726E616C2052414D0A00202D0A000A002020283029202D204E65787499
:202BA10020506167650A2020283129202D205072657620506167650A2020284529202D20B7
:202BC100454E440A000A456E64206F6620446174612E00456E64206F662044617461000A85
:202BE10052657475726E696E6720746F0A4D61696E204D656E752E000A456E746572207306
:202C01006F757263650A7374617274696E672052414D0A616464726573733A0A0A20203071
:202C2100785F5F5F5F000A0A4E65772076616C75653A0A202030785F5F000A0A0A0A2831B9
:202C4100292045646974206E6578740A52414D206C6F636174696F6E0A0A00284529204553
:202C61006E64000A456E64206F6620646174612E0A000A52657475726E696E6720746F0AA4
:202C81006D61696E206D656E752E00206E6F740A666F756E6420696E0A616464726573730D
:202CA1002072616E67650A0A0020666F756E642061740A74686520666F6C6C6F77696E6765
:202CC1000A6164647265737365733A0A0A00456E64206F6620446174612E000A456E746573
:202CE100720A7374617274696E672052414D0A616464726573733A0A0A20202030785F5FE7
:202D01005F5F000A456E746572207365617263680A76616C75653A0A0A20202030785F5F1B
:202D21000020202043616D65726F6E0A20202042696E69616D6F770A0020204543454E2D3B
:202D4100343333300A0A002841292052414D20434845434B0A00284229204D4F56450A0086
:202D610028432920434F554E540A002844292044554D500A0028452920454449540A002808
:152D810046292046494E440A00537072696E672032303231002B
:2022EE007A10E4FBFCE58225E0F582E58333F583EB33FBEC33FCEB9508F5F0EC9509400604
:09230E00FCABF0438201DADD2290
:06005800E478FFF6D8FD7C
:200036007900E94400601B7A00902D96780175A000E493F2A308B8000205A0D9F4DAF275AD
:02005600A0FF09
:1D231700E5828508F0A4C582C0F08509F0A4D0F025F0C5838508F0A42583F5832288
:20233400E508450960467A01E50825E0F508E509334012F509E5829508E583950940030A76
:2023540080E6C3E50913F509E50813F508C3E5829508F5F0E58395094005F58385F082C31B
:0D237400E50913F509E50813F508DAE12283
:20005E007800E84400600A790175A000E4F309D8FC7800E84400600C7900900001E4F0A3A0
:04007E00D8FCD9FAD7
:0D00290075817A12239DE582600302002696
:1C23810020F71430F6148883A88220F507E6A88375830022E280F7E49322E0226B
:04239D007582002223
:00000001FF
